:100000000C943D000C940D050C940D050C940D05FD
:100010000C94D6030C940D050C940D050C940D0551
:100020000C940D050C940D050C940D050C941C01FD
:100030000C940D050C940D050C940D050C940D05F8
:100040000C944B020C940D050C940D050C940D05AD
:100050000C940D050C940D050C940D050C940D05D8
:100060000C940D050C940D05010001118001110186
:1000700013000A1E0113011E800011241FBECFEFC2
:10008000D8E0DEBFCDBFE8E6F0E040E017C0B591B4
:10009000A59135912591059107FD0CC0959185910C
:1000A000EF01F92FE82F05900D92A217B307D9F7AA
:1000B000FE0104C01D92A217B307E1F7E937F40768
:0E00C00031F70E9470000C946500F894FFCF99
:1000CE004079243019120278001008034621060EDA
:0100DE000918
:1000E0000E949D040E9445040E94090582E00E942E
:1000F000E90483E00E94E9040E94D804239A2B9823
:100100000E94820478948AE5809300018091000126
:100110000E94B204C4E0DFE00F2EFEE1FF2EF02DBE
:100120000DE21CE380910701813009F06BC08091E2
:100130001701813009F066C0809100018A3589F489
:1001400010930001809100010E94B20410920E01F0
:1001500010920D01109219011092180110920701CE
:1001600051C0809100018C3389F40093000180918B
:1001700000010E94B20410920E0110920D01109223
:10018000190110921801109207013CC080910001E2
:100190008D3289F4F0920001809100010E94B20436
:1001A00010920E0110920D01109219011092180177
:1001B0001092070127C0809100018E3189F4D093FD
:1001C0000001809100010E94B20410920E01109271
:1001D0000D0110921901109218011092070112C01E
:1001E00010920001809100010E94B20410920E0151
:1001F00010920D011092190110921801109207012E
:10020000C093170180911901882309F48BCF809145
:100210001701823009F086CF80910001882329F0F0
:1002200080910001815080930001809100010E9423
:08023000B2041092190176CF0F
:100238001F920F920FB60F9211242F933F934F9353
:100248005F936F937F938F939F93AF93BF93EF9336
:10025800FF9380910F0190911001019690931001E6
:1002680080930F0180910D0190910E01019690935A
:100278000E0180930D0180910F0190911001883E2D
:10028800934038F01092100110920F0181E0809392
:10029800190180910D0190910E018838934140F128
:1002A80010920E0110920D0181E08093180120C078
:1002B80081E08093150180910B0190910C01843F9E
:1002C800914019F481E08093140180910B01909181
:1002D8000C01883E934038F010920C0110920B01EB
:1002E80081E0809316010E942F030E94BA012DC05D
:1002F80080910801909109010196909309018093DA
:10030800080180E00E94880380910B0190910C0104
:10031800019690930C0180930B0140910B01509131
:100328000C019A0136952795ABE7B4E10E94FA04CF
:100338009695879562E3689F9001699F300D112417
:100348004217530709F4B4CFB6CFFF91EF91BF918D
:10035800AF919F918F917F916F915F914F913F9155
:0C0368002F910F900FBE0F901F90189562
:10037400809113018130F1F038F0823009F443C0E8
:10038400833009F468C00895E1EBF0E080818D7F4B
:10039400808380818E7F8083E0EBF0E080818F7B9F
:1003A400808380911701833009F072C081E08093CB
:1003B40013010895E1EBF0E0808182608083808105
:1003C40081608083E0EBF0E08081806480838091B1
:1003D4001701833019F010921301089580911501CB
:1003E400882331F082E0809313011092150108955F
:1003F40080911401882309F44BC083E08093130196
:10040400109214010895E1EBF0E080818D7F8083E8
:1004140080818E7F8083E0EBF0E080818F7B80831E
:1004240080911701833019F010921301089580917F
:100434001501882331F081E0809313011092150196
:10044400089580911401882319F183E080931301A6
:10045400109214010895E1EBF0E080818D7F808398
:1004640080818E7F8083E0EBF0E080818F7B8083CE
:1004740080911701833019F010921301089580912F
:100484001601882329F081E080931301109216014C
:020494000895C9
:100496001F920F920FB60F9211242F933F934F93F3
:1004A6005F936F937F938F939F93AF93BF93CF93F6
:1004B600EF93FF9380911A01882309F45DC0809120
:1004C6001B01811154C080911D018F5F80931D0116
:1004D600C0911D01C370EC2FF0E0EE5FFE4F8081EE
:1004E6009091010161E070E00C2E02C0660F771F4B
:1004F6000A94E2F769230E94110488B1837C88B9C3
:10050600C13089F028F0C230C9F0C33011F12BC0D8
:1005160080911C0180FF03C088B18F7D02C088B125
:10052600806288B920C080911C0181FF03C088B118
:100536008F7E02C088B1806188B915C080911C0188
:1005460082FF03C088B1877F02C088B1886088B9FE
:100556000AC080911C0183FF03C088B18B7F02C053
:1005660088B1846088B981E080931B0105C0109230
:100576001B0188B1837C88B9FF91EF91CF91BF9120
:10058600AF919F918F917F916F915F914F913F9125
:0C0596002F910F900FBE0F901F90189532
:1005A200CF93AC01892BC1F1C0E0E0E0F0E09A0109
:1005B200ADECBCEC0E94FA049695879596958795CA
:1005C200969587959C01220F331F880F991F880FDC
:1005D200991F880F991F820F931F9A01281B390BAD
:1005E200C901982F88279295907FE82BF92B9A01C1
:1005F2000E94FA04AC015695479556954795569533
:1006020047954115510521F1F295E295EF70EF27DB
:10061200FF70EF27CF5FCBCFC0E0E0E0F0E084E0F7
:1006220090E08C1B9109880F991F880F991F9F01D9
:1006320002C0369527958A95E2F7C9010DC0CF0110
:10064200929582958F7089279F708927906E04C03A
:0C065200CF5FC530A0F7E3CFCF91089533
:10065E0080911701823091F128F4882349F081307E
:10066E00F9F00895833009F443C08430C1F1089540
:10067E008AE580930001809100010E94B2041092DD
:10068E000E0110920D011092180180910701813018
:10069E00B9F5809317011092190110920701089570
:1006AE0080911801882361F110921901109218019E
:1006BE001092070182E0809317010895809107013F
:1006CE00823029F41092170110920701089580913B
:1006DE000001811115C083E0809317010895809168
:1006EE000701813069F410921701109207010895E5
:1006FE0080910701823021F41092170110920701A8
:02070E0008954C
:1007100090E0FC01EA5FFE4F2081213089F028F053
:10072000223079F12330B9F10895FC01E65FFE4FE4
:1007300020812130D1F5FC01EA5FFE4F208308952E
:10074000FC01E65FFE4F2081211106C0FC01EA5F3B
:10075000FE4F22E020830895FC01EE0FFF1FE85FAB
:10076000FE4F208131812C3D3540F8F0FC01E95FDE
:10077000FE4F22E02083FC01EA5FFE4F23E020834E
:100780000895FC01E95FFE4F21E02083FC01EA5F50
:10079000FE4F10820895FC01E65FFE4F208121117B
:0C07A00004C0FC01EA5FFE4F10820895C7
:1007AC001F920F920FB60F9211248F939F93EF937A
:1007BC00FF938091080190910901029718F18091A3
:1007CC000A0181110EC0E0911101F091120180819A
:1007DC0080FF07C081E080930A01109209011092FA
:1007EC00080180910A01813069F4E0911101F091C6
:1007FC001201808180FD06C010920A01109209013D
:10080C0010920801FF91EF919F918F910F900FBE65
:06081C000F901F901895DB
:100822008F7090E0A0E082539F4FAF4FFC019491F4
:10083200A7FD908196FF03C085B1826002C085B199
:100842008D7F85B995FF03C085B1816002C085B1F6
:100852008E7F85B994FF03C085B1846002C085B1E3
:100862008B7F85B98BB1282F2F7030E1939FC00108
:100872001124822B8BB9662319F088B18D7F02C0B7
:0808820088B1826088B9089575
:10088A0087B18E6387B988B1837C88B9419A84B16C
:10089A00876084B985B1876085B98AB1806F8AB962
:1008AA008BB1806F8BB914BC15BC16BCEEE6F0E0B8
:1008BA0080818160808385B5826085BD7894089542
:1008CA00609301019C012F703327E2E0F1E020835D
:1008DA009C01207F3327329522952F7023273F7062
:1008EA00232721839C0122273F7032838827907F08
:0A08FA00892F82958F708383089583
:1009040010928000E1E8F0E01082109285001092CD
:10091400840087EE93E0909389008093880080811F
:1009240088608083AFE6B0E08C9182608C93808194
:060934008160808308953C
:10093A001092060110920A01109207011092090101
:10094A0010920801ECE6F0E0808181608083E8E69D
:0A095A00F0E0808182608083089540
:10096400CF93C82F8A3020F481E00E94E90403C0A9
:1009740081E00E94C6048C2F90E00E94D10260E0C6
:080984000E946504CF91089563
:10098C00843078F440911C0121E030E0B90102C0C0
:10099C00660F771F8A95E2F7CB01809584238093AD
:0409AC001C0108958D
:1009B000E0EBF0E010821092B1001092B2008EE1F4
:1009C0008093B30080818064808380818260808393
:0209D000089588
:1009D200843070F440911C0121E030E0B90102C082
:1009E200660F771F8A95E2F7CB01842B80931C0157
:0209F200089566
:1009F400A29FB001B39FC001A39F700D811D11245C
:0E0A0400911DB29F700D811D1124911D08954A
:080A120081E080931A010895B0
:040A1A000C94000038
:020A1E002600B0
:00000001FF
